S01100004D6973636870756C742E737265635A
S113000033C1000052C1000050C100004EC10000C5
S11300104CC100004AC100000C94311A0C94591AC6
S113002044C1000042C1000040C100003EC10000C4
S11300303CC100000C94F7190C94201A36C100003E
S113004034C1000032C1000030C100002EC10000E4
S11300502CC100002AC1000028C1000026C10000F4
S113006024C1000022C1000020C100001EC1000004
S11300700C94781A1AC1000018C1000016C10000BF
S113008014C1000012C1000010C100000EC1000024
S11300900CC100000AC1000008C1000006C1000034
S11300A004C1000002C1000000C10000FEC0000045
S11300B0FCC00000FAC000000C94CE19F6C0000089
S11300C0F4C00000F2C00000F0C00000EEC0000068
S11300D0ECC00000EAC00000E8C00000E6C0000078
S11300E0E4C00000E2C00000E0C00000DEC0000088
S11300F0DCC00000DAC00000D8C00000D6C0000098
S1130100D4C00000D2C00000D0C00000CEC00000A7
S1130110CCC00000CAC00000C8C00000C6C00000B7
S1130120C4C00000C2C00000C0C00000BEC00000C7
S1130130BCC00000BAC00000B8C00000B6C00000D7
S1130140B4C00000B2C00000B0C00000AEC00000E7
S1130150ACC00000AAC00000A8C00000A6C00000F7
S1130160A4C00000A2C00000A0C000009EC0000007
S11301709CC000009AC0000098C0000096C0000017
S113018094C0000092C0000090C000008EC0000027
S11301908CC000008AC0000088C0000086C0000037
S11301A084C0000082C0000080C000007EC0000047
S11301B07CC000007AC0000078C0000076C0000057
S11301C074C0000072C0000070C000006EC0000067
S11301D06CC000006AC0000068C0000066C0000077
S11301E064C0000062C0000060C000005EC0000087
S11301F05CC000005AC0000058C00000E902F002D0
S1130200F3028E038E03F6028E038E038E038E0397
S1130210FC0204030C0314031C038E038E038E03DD
S11302208E038E03240327032A038E038E038E0377
S11302308E038E038E038E032D0336033F038E033A
S113024049035203540356038E038E038E038E0315
S11302508E0358035F0366036D03740379037E03FF
S113026083038E0388038C0311241FBECFEFCDBFFD
S1130270DFE5DEBF00E00CBF16E2A0E0B0E2E8E09C
S1130280FBE300E00BBF02C007900D92A039B10759
S1130290D9F72DE2A0E9B6E201C01D92A736B20754
S11302A0E1F70E94F2180C94821DAACEE0E0F2E07D
S11302B084E0818382E0828387E0848381E0808399
S11302C00895FC0181E08083660F660F660F6183E9
S11302D080818068808393819923E9F381E083831B
S11302E0848195810895AF92CF92EF920F93CF932B
S11302F0DF93CDB7DEB72997CDBFDEBF3BE13983AE
S1130300FC0130813A8381818B836C834D832E83FE
S11303100F83E886C98663E06A0DCE0101960E94C8
S11303201F1C2996CDBFDEBFDF91CF910F91EF90B7
S1130330CF90AF9008950F93CF93DF93CDB7DEB7EF
S1130340E897CDBFDEBFEBE1E983DC01EC91EA8302
S113035011968C918B836C837D834E835F83602F96
S1130360013308F060E3662391F0A22FB32FFE015E
S113037038968FEF860F9E01280F311D275F3F4F60
S11303808D918193E217F307D9F7862F01C0862F49
S1130390FE01E80FF11D1086685FCE0101960E94F0
S11303A01F1CE896CDBFDEBFDF91CF910F9108955A
S11303B0AF92CF92DF92EF92FF920F931F93CF935E
S11303C0DF93CDB7DEB72F97CDBFDEBFEBE1E98377
S11303D0DC01EC91EA8311968C918B836C837D8391
S11303E04E835F83288739870A871B87EC86FD86BF
S11303F0CE86DF8663E06A0DCE0101960E941F1C43
S11304002F96CDBFDEBFDF91CF911F910F91FF904B
S1130410EF90DF90CF90AF9008958F92AF92CF92EC
S1130420EF92FF920F931F93CF93DF93CDB7DEB775
S11304306097CDBFDEBF7BE17983FC0170817A8355
S113044081818B836C834D835E832F8338870987F7
S11304501A87EB86FC86CD86AE868F868D8D888B3B
S113046060E1CE0101960E941F1C6096CDBFDEBFE5
S1130470DF91CF911F910F91FF90EF90CF90AF90AC
S11304808F9008958F92AF92BF92CF92EF920F9375
S11304901F93CF93DF93CDB7DEB7EE97CDBFDEBF0B
S11304A0EBE1E983DC01EC91EA8311968C918B8377
S11304B06C837D834E835F83288739870A871B87F4
S11304C0EC86CD86682D613308F060E3662391F0F5
S11304D0AA2DBB2DFE013E968FEF860F9E01280F9D
S11304E0311D215F3F4F8D918193E217F307D9F7B7
S11304F0862F01C0862FFE01E80FF11D1686625F6C
S1130500CE0101960E941F1CEE96CDBFDEBFDF9187
S1130510CF911F910F91EF90CF90BF90AF908F909C
S11305200895AF92CF92DF92EF920F93CF93DF9320
S1130530CDB7DEB7EA97CDBFDEBF3BE13983FC011F
S113054030813A8381818B836C837D834E835F8387
S113055028870987EA866A2D613308F060E36623F9
S113056091F0AC2DBD2DFE013B968FEF860F9E01C1
S1130570280F311D245F3F4F8D918193E217F307BC
S1130580D9F7862F01C0862FFE01E80FF11D1386CF
S1130590655FCE0101960E941F1CEA96CDBFDEBFA7
S11305A0DF91CF910F91EF90DF90CF90AF900895AE
S11305B0E091E42C8E2F90E0FC01E45BF109E6333A
S11305C0F10508F0ABC08827E250FF4F8F4F0C9421
S11305D0C81C81E00E941E1684EB80939C2C9EC054
S11305E00E9415179BC00E94BB1798C080E00E9410
S11305F01E1610929C2C92C061E081E00E94191397
S11306008EEB8093EE208AC063E083E00E9419138E
S11306108FEB8093EE2082C062E082E00E94191387
S113062080EC8093EE207AC064E084E00E94191389
S113063081EC8093EE2072C064E083E00E94191381
S113064082EC8093EE206AC00E94111167C00E9460
S11306501A0D64C00E94AF0F61C04AD11092942C4D
S11306601092932C82ED8093ED2058C046D11092C5
S1130670942C1092932C83ED8093ED204FC042D1A3
S11306801092942C81E08093932C84ED8093ED2040
S113069045C081E08093942C1092932C86ED809336
S11306A0ED203CC077D23AC0DBD438C06CD636C01B
S11306B081E08093982C8FED8093652D2FC081E08D
S11306C08093972C80EE8093662D28C081E08093E0
S11306D0962C81EE8093632D21C081E08093952C2C
S11306E082EE8093622D1AC01092982C1092652D80
S11306F015C01092972C1092662D10C01092962C53
S11307001092632D0BC01092952C1092622D06C08E
S113071081E08093642D02C01092642D81E00895DD
S1130720CF93DF938091E42C8F31D1F028F484317E
S113073051F08E3189F023C08932D1F08A32E1F050
S11307408832E9F411C0CBEBDCE28AA50E94BD1427
S11307508AA50E94571013C08091E52C81D00FC048
S11307608091E52C89D00BC08091E52C7CD007C00A
S11307708091E52C7ED003C08091E52C77D081E078
S1130780DF91CF9108958091E22C813419F0823465
S113079019F004C00DCF0895C3CF089580E00895E3
S11307A0E0E0F1E020E8208320ED228B2CE4238B91
S11307B0648B758B808F918F128E80EA848F88E092
S11307C0858F168E81898160818B0895E0E0F1E048
S11307D020E8208335E532A313A244A355A380A7C0
S11307E091A712A664A775A716A681A1816081A30B
S11307F020A308959C019091A10896FD30C090918A
S1130800042D91110FC0E0EAF8E083E1868317829A
S11308101082918196FFFDCFE0EAF8E08181806447
S1130820818302C0913091F4E0EAF8E087E08683A6
S113083017821082918196FFFDCFE0EAF8E0818172
S11308408064818382E08093042D02C0923039F465
S1130850C901A6DFE0E0F1E0168A84E8808B089500
S113086080930620089580939B2C089580939A2C5E
S113087008958093992C08958093052008958230DB
S1130880D9F028F4882351F0813079F00895853027
S113089009F1863031F1843051F515C0E0E8F6E015
S11308A080E4858380E886830895E0E8F6E080E4C8
S11308B0868380E885830895E0E8F6E080E4858314
S11308C080E885830895E0E8F6E080E1858380E2AE
S11308D085830895E0E8F6E080E1858380E28583FE
S11308E00895E0E8F6E080E1858380E28583089559
S11308F01092902680E0C3CF089581E080939026E3
S1130900BECF08951092902680E0B9CF0895CF937A
S1130910DF93CDB7DEB7D250CDBFDEBF80E092E02B
S1130920EFEEF0E2DE01119601900D920197E1F7EE
S113093080E0A5DF80910620880FFE0131969E019C
S11309402F5F3D4F8193E217F307E1F760E072E018
S1130950CE0101964FDF2FEF80E792E021508040D7
S11309609040E1F700C00000DE5FCDBFDEBFDF9145
S1130970CF9108958F929F92AF92BF92CF92DF92C0
S1130980EF92FF920F931F93CF93DF9380E077DF73
S11309909924939400E011E00F2EFDEBAF2EF9E2C1
S11309A0BF2EF02D0F2EFEEBCF2EF9E2DF2EF02D11
S11309B088248A94CFE7D0E00F2EF0E6EF2EF6E0FD
S11309C0FF2EF02D8091922C8823B1F040E052E06C
S11309D061E978E281E99AE2F9DEF80180A184FD17
S11309E0FCCF80A1806180A38091912C8823E1F3C6
S11309F01092922C1092912C992041F0F501808252
S1130A0080929328F6018082912C08C0F50110820F
S1130A1010929328F60110829924939460E072E076
S1130A2081E998E2E7DEFFEF2EE332E0F150204067
S1130A303040E1F700C0000080910520FE01E81B72
S1130A40F1091E161F0694F480E0EFE3FFE13197ED
S1130A50F1F700C000008F5F482F50E0909105200F
S1130A609E01291B3109421753077CF3F701808546
S1130A7086FDA8CF8091902602DFDF91CF911F9150
S1130A800F91FF90EF90DF90CF90BF90AF909F9029
S1130A908F900895EF92FF920F931F93CF93DF935C
S1130AA0CDB7DEB7D250CDBFDEBF80E092E0EFEE2F
S1130AB0F0E2DE01119601900D920197E1F780E0DA
S1130AC0DEDE0FE710E00F2EF0E6EF2EF6E0FF2E4D
S1130AD0F02D60E072E0CE0101968CDE2FEF3EE354
S1130AE082E0215030408040E1F700C00000809156
S1130AF00520F801E81BF1091E161F0694F480E096
S1130B00EFE3FFE13197F1F700C000008F5F482F5A
S1130B1050E0909105209801291B31094217530791
S1130B207CF360E072E081E996E264DEFFEF2EE39D
S1130B3032E0F15020403040E1F700C000008091E5
S1130B400520F801E81BF1091E161F0694F480E045
S1130B50EFE3FFE13197F1F700C000008F5F482F0A
S1130B6050E0909105209801291B31094217530741
S1130B707CF3F701808586FDACCF809190267FDEE3
S1130B80DE5FCDBFDEBFDF91CF911F910F91FF904C
S1130B90EF9008958091642D811102C0EBCE0895E9
S1130BA079CF08954F925F926F927F928F929F9226
S1130BB0AF92BF92CF92DF92EF92FF920F931F9367
S1130BC0CF93DF931F92CDB7DEB780E058DEDD24EC
S1130BD0D394E12CFF24F3940F2EFDEB8F2EF9E236
S1130BE09F2EF02D0F2EFEEB6F2EF9E27F2EF02DAF
S1130BF055245A940FE710E00F2EF0E6AF2EF6E0DE
S1130C00BF2EF02D8091922C8823B1F040E052E069
S1130C1061E978E281E99AE2D9DDF70180A184FDF6
S1130C20FCCF80A1806180A38091912C8823E1F383
S1130C301092922C1092912CDD2009F474C060E083
S1130C4080E292E03EDB482E8FE39FE10197F1F7CB
S1130C5000C0000060E080E292E033DB6C01EFE36F
S1130C60FFE13197F1F700C0000060E080E292E01C
S1130C7028DBDD24C40CD11C9601280F311DC901C9
S1130C800E94291D0E94261D8476898389818031D2
S1130C9040F4F401508210929328F3011082D12C75
S1130CA04CC089818F3140F4F40110825092932812
S1130CB0F3011082D12C41C089818E3240F4F401B9
S1130CC0108210929328F3015082D12C36C089816E
S1130CD08D3340F4F401508250929328F301108232
S1130CE0D12C2BC089818C3440F4F40110825092B1
S1130CF09328F3015082D12C20C089818B3540F494
S1130D00F401508210929328F3015082D12C15C023
S1130D108981853688F4F401508250929328F30136
S1130D205082D12C0AC0F401108210929328F3014E
S1130D301082DD24D39401C0D12C60E072E081E9FB
S1130D4098E258DDFFEF2EE332E0F15020403040CE
S1130D50E1F700C0000080910520F801E81BF109CB
S1130D601E161F0694F480E0EFE3FFE13197F1F7DC
S1130D7000C000008F5F482F50E09091052098013B
S1130D80291B3109421753077CF3F501808586FD41
S1130D9039CF8091902673DD0F90DF91CF911F9111
S1130DA00F91FF90EF90DF90CF90BF90AF909F9006
S1130DB08F907F906F905F904F9008955F926F92A5
S1130DC07F928F929F92AF92BF92CF92DF92EF92D7
S1130DD0FF920F931F93CF93DF93CDB7DEB7C1502C
S1130DE0D240CDBFDEBFFE01319680E092E0DF014C
S1130DF09C011D9221503040E1F780E040DD6E01FE
S1130E003FEFC31A3DEFD30A77247A94672C8E01FF
S1130E1001501E4F0F2EFFE7EF2EF12CF02D0F2E59
S1130E20F0E6AF2EF6E0BF2EF02D60E080E292E017
S1130E3048DA582E8FE39FE10197F1F700C00000D4
S1130E4060E080E292E03DDA4C01AFE3BFE111974C
S1130E50F1F700C0000060E080E292E032DA992409
S1130E60850C911CF401E80FF11DCF010E94291D8E
S1130E700E94261D8476D6018C938C91803188F44F
S1130E80FE0131967082D8016C921182C050DE4FFF
S1130E901882C050D24012823396E017F10791F7BE
S1130EA073C0F60180818F3188F4FE01319610827F
S1130EB0D8011C927182C050DE4F6882C050D2406B
S1130EC0128233960E171F0791F75EC0F6018081D8
S1130ED08E3288F4FE0131961082D8011C92118260
S1130EE0C050DE4F1882C050D240728233960E1723
S1130EF01F0791F749C0F60180818D3388F4FE0104
S1130F0031967082D8016C927182C050DE4F688233
S1130F10C050D24012823396E017F10791F734C0E3
S1130F20F60180818C3488F4FE0131967082D801F8
S1130F306C921182C050DE4F1882C050D24072822F
S1130F403396E017F10791F71FC0F60180818B35C6
S1130F5088F4FE0131961082D8011C927182C0502F
S1130F60DE4F6882C050D240728233960E171F073C
S1130F7091F70AC0F6018081853630F4FE0131967E
S1130F807192CE16DF06E1F760E072E0CE010196C1
S1130F9031DCFFEF2EE332E0F15020403040E1F746
S1130FA000C0000080910520D701A81BB1091A16C2
S1130FB01B0694F480E0EFE3FFE13197F1F700C002
S1130FC000008F5F482F50E0909105209701291B66
S1130FD03109421753077CF360E072E081E996E23D
S1130FE009DCFFEF2EE332E0F15020403040E1F71E
S1130FF000C0000080910520D701A81BB1091A1672
S11310001B0694F480E0EFE3FFE13197F1F700C0B1
S113101000008F5F482F50E0909105209701291B15
S11310203109421753077CF3D50118968C9186FD3C
S1131030FCCE8091902623DCCF5FDD4FCDBFDEBF99
S1131040DF91CF911F910F91FF90EF90DF90CF90A0
S1131050BF90AF909F908F907F906F905F90089516
S11310608091642D811102C09DCD0895A7CE08956D
S11310709F92AF92BF92CF92DF92EF92FF920F9323
S11310801F93CF93DF9380E0FADB9924939400E0DD
S113109011E00F2EFDEBAF2EF9E2BF2EF02D0F2E37
S11310A0FEEBCF2EF9E2DF2EF02DCFE7D0E00F2EAE
S11310B0F0E6EF2EF6E0FF2EF02D8091922C88239F
S11310C0B1F040E052E061E978E281E99AE27EDB46
S11310D0F80180A184FDFCCF80A1806180A3809170
S11310E0912C8823E1F31092922C1092912C992048
S11310F0A9F180910620BE01681B710940919B2CC7
S113110050E0461B570B440F551F2091992C30E09B
S1131110261B370B220F331F80919A2C90E0861BDD
S1131120970B880F991F141615061CF4F5014083BC
S113113002C0F5011082121613061CF4F601208376
S113114002C0F60110821816190624F4809393281D
S1131150912C0CC010929328912C08C0F501108298
S113116010929328F60110829924939460E072E01F
S113117081E998E23FDBFFEF2EE332E0F1502040BB
S11311803040E1F700C0000080910520FE01E81B1B
S1131190F1091E161F0694F480E0EFE3FFE1319796
S11311A0F1F700C000008F5F482F50E090910520B8
S11311B09E01291B3109421753077CF3F7018085EF
S11311C086FD7BCF809190265ADB8091902657DB59
S11311D0DF91CF911F910F91FF90EF90DF90CF900F
S11311E0BF90AF909F900895CF92DF92EF92FF92BD
S11311F00F931F93CF93DF93CDB7DEB7D250CDBFFC
S1131200DEBFFE01319680E092E0DF019C011D9279
S113121021503040E1F780E032DB0F2EFFE7EF2E64
S1131220F12CF02D8E0101501E4F0F2EF0E6CF2E23
S1131230F6E0DF2EF02D80910620B701681B7109BE
S113124020919B2C30E0261B370B220F331F8091FB
S1131250992C90E0861B970B880F991F40919A2C2C
S113126050E0461B570B440F551FFE0131961216D2
S1131270130624F42083D8012C9303C01082D801D0
S11312801C92181619063CF48183C050DE4F8883E3
S1131290C050D24006C01182C050DE4F1882C050E8
S11312A0D2401416150614F4428301C012823396F8
S11312B0E017F107E1F660E072E0CE0101969ADAF8
S11312C0BFEFEEE3F2E0B150E040F040E1F700C0E0
S11312D00000809105209701281B3109C9011816C7
S11312E0190694F480E0AFE3BFE11197F1F700C071
S11312F000008F5F482F50E0909105209701291B33
S11313003109421753077CF360E072E081E996E209
S113131071DABFEFEEE3F2E0B150E040F040E1F704
S113132000C00000809105209701281B3109C901E4
S11313301816190694F480E0AFE3BFE11197F1F7B2
S113134000C000008F5F482F50E090910520970166
S1131350291B3109421753077CF3F601808586FD6A
S11313606ACF809190268BDA8091902688DADE5FAE
S1131370CDBFDEBFDF91CF911F910F91FF90EF9012
S1131380DF90CF9008958091642D811102C070CEBA
S113139008952ACF0895EF92FF920F931F93CF934E
S11313A0DF9380E06CDA209106208FE790E0821BC7
S11313B09109E0909B2CF12CE81AF90AEE0CFF1C21
S11313C00091992C10E0081B190B000F111FC091FC
S11313D09A2CD0E0C81BD90BCC0FDD1F8091922C26
S11313E08823C9F040E052E061E978E281E99AE2B9
S11313F0EDD9E0E0F1E080A184FDFDCFE0E0F1E093
S113140080A1806180A38091912C8823E1F31092C4
S1131410922C1092912C8091982C811104C080916F
S1131420952C882349F01E141F041CF4E092BD2956
S11314300AC01092BD2907C01092BD298091972C33
S1131440811109C011C08091972C811104C0809131
S1131450952C882349F0101611061CF40093BE291C
S11314600AC01092BE2907C01092BE298091962C02
S1131470811109C011C08091962C811104C0809102
S1131480952C882349F01C161D061CF4C093932840
S113149006C01092932803C01092932804C0809130
S11314A0952C81110AC080910420882331F0109278
S11314B0BD29109293281092BE299091042081E0B6
S11314C089278093042060E072E081E998E292D950
S11314D08FEF9EE3E2E081509040E040E1F700C0EE
S11314E00000209105208FE790E0821B91091816D7
S11314F01906A4F480E06FE770E0EFE3FFE13197B1
S1131500F1F700C000008F5F482F50E09091052054
S11315109B01291B3109421753077CF380919026C4
S1131520AED9DF91CF911F910F91FF90EF90089565
S11315300F931F93CF93DF93CDB7DEB7D250CDBFB8
S1131540DEBFFE01319680E092E0DF019C011D9236
S113155021503040E1F780E092D9809106206FE776
S113156070E0681B710980919B2C90E0861B970B9F
S1131570880F991F2091992C30E0261B370B220FDE
S1131580331F40919A2C50E0461B570B440F551FB4
S11315907091982C772361F06091952C0091972C91
S11315A01091962CFE013196DE01A150BE4F0DC064
S11315B06091972C6111F0CF6091962C6111ECCF62
S11315C06091952C6111E8CF77C0711102C0662338
S11315D089F0181619063CF48083C150DE4F8883C5
S11315E0CF5FD14010C01082C150DE4F1882CF5F50
S11315F0D14009C01082C150DE4F1882CF5FD14064
S1131600011105C015C0011102C0662389F012162C
S113161013063CF42183C050DE4F2883C050D240CF
S11316200BC01182C050DE4F1882C050D24004C09B
S11316301182111105C00BC0111102C0662339F0CB
S11316401416150614F4428303C0128201C01282D8
S11316503396AE17BF0709F0B8CF60E072E0CE0151
S11316600196C8D83FEF8EE392E03150804090401D
S1131670E1F700C00000209105208FE790E0821B75
S1131680910918161906A4F480E06FE770E0AFE33F
S1131690BFE11197F1F700C000008F5F482F50E0C1
S11316A0909105209B01291B3109421753077CF3B4
S11316B08091952C81112BC060E072E081E996E263
S11316C099D8BFEFEEE3F2E0B150E040F040E1F72B
S11316D000C00000209105208FE790E0821B910953
S11316E018161906A4F480E06FE770E0AFE3BFE1D9
S11316F01197F1F700C000008F5F482F50E09091E0
S113170005209B01291B3109421753077CF3809163
S11317109026B5D8DE5FCDBFDEBFDF91CF911F919C
S11317200F9108958091642D811102C034CE0895E3
S1131730FFCE08950F931F93CF93DF93CDB7DEB7FA
S1131740C950D240CDBFDEBF8E010F5F1F4F80E076
S113175092E0F8019C01119221503040E1F7CF5FF3
S1131760DD4F18821982C150D240CD5FDD4F1882FF
S11317701982C350D240CB5FDD4F18821982C55005
S1131780D240C95FDD4F1882C750D240C85FDD4FD9
S11317901882C850D240C75FDD4F1882C950D2406A
S11317A080E06DD883E0809390268FE49DE20E94D0
S11317B07D1890E0CF5FDD4F88839983C150D2407C
S11317C085E59DE20E947D1890E0CD5FDD4F888322
S11317D09983C350D2408BE59DE20E947D1890E02E
S11317E0CB5FDD4F88839983C550D240E5E0FDE2AD
S11317F080A5C95FDD4F8883C750D24086A1C85FEA
S1131800DD4F8883C850D24083A1C75FDD4F8883F2
S1131810C950D240C95FDD4F8881C750D240CF5FE5
S1131820DD4F88819981C150D240F8019E01215039
S11318303E4FC95FDD4F8881C750D2408083C85F67
S1131840DD4F8881C850D2408183C75FDD4F8881D6
S1131850C950D240828333962E173F0751F7C95F90
S1131860DD4F8881C750D240C150DE4F8883CF5F9F
S1131870D140C85FDD4F8881C850D240C050DE4F90
S11318808883C050D24060E072E0CE0101960E948D
S1131890FA033FEF8EE392E0315080409040E1F74D
S11318A000C00000209105208FE790E0821B910981
S11318B018161906A4F480E06FE770E0EFE3FFE187
S11318C03197F1F700C000008F5F482F50E09091EE
S11318D005209B01291B3109421753077CF3C75F7D
S11318E0DD4FCDBFDEBFDF91CF911F910F910895E2
S11318F0AF92CF92DF92EF92FF920F931F93CF9309
S1131900C82FA12CC12CE12C00E020E040E060E0D5
S11319108EEF92E20E94730120E040E060E081E0FB
S113192093E20E9473010F2EF9E0AF2EF02DC12C2B
S1131930D12C0F2EFFE0EF2EF12CF02D00EF10E054
S113194027E131E040E050E060E070E084E093E2C1
S11319500E94D8016894AA24A1F8E12C00E020E0B8
S113196041E060E087E093E20E947301AA24A3941B
S113197020E040E061E08AE093E20E947301689411
S1131980AA24A1F820E040E06FE08DE093E20E94F9
S11319907301A12C0F2EFCE4CF2EF3E2DF2EF02DE9
S11319A00F2EFBECEF2EF02D08EC2EE04AE050E079
S11319B066E171E080E193E20E9491020F2EFCEC5B
S11319C0EF2EF02D09EC2FE045E550E066E171E0E3
S11319D080E193E20E9491020F2EFDECEF2EF02D98
S11319E00AEC20E140EA50E066E171E080E193E234
S11319F00E949102AA24A394C12CE12C00E020E0CF
S1131A0040E060E08AE093E20E9473016894AA24B3
S1131A10A1F820E041E06C2F83E193E20E9473017E
S1131A2081E0CF911F910F91FF90EF90DF90CF90C5
S1131A30AF9008958F92AF92CF92DF92EF92FF9280
S1131A400F931F93CF9389EC53DF0F2EF5E0AF2E46
S1131A50F02DC12CD12CE12CF12C00E010E021E17F
S1131A6030E04AEA50E060E070E086E193E20E94F0
S1131A70D8012EE130E040E050E060E070E086E123
S1131A8093E20E94D801AA24A39420E040E063E0FA
S1131A908AE093E20E9473016894AA24A1F820E0EA
S1131AA040E069E08DE093E20E947301A12C0F2EC7
S1131AB0FCE4CF2EF3E2DF2EF02D0F2EF7EDEF2E08
S1131AC0F02D02ED28E149EB50E065E070E080E1A3
S1131AD093E20E9491020F2EF8EDEF2EF02D03ED0C
S1131AE029E149EB50E06CE370E080E193E20E946D
S1131AF091020F2EF9EDEF2EF02D04ED2AE149EBC2
S1131B0050E063E770E080E193E20E9491020F2EBF
S1131B10FBEDEF2EF02D06ED2BE149EB50E061EEED
S1131B2070E080E193E20E949102AA24A394C12C64
S1131B30E12C00E020E040E060E08AE093E20E94D3
S1131B407301A12C0F2EFCE4CF2EF3E2DF2EF02D37
S1131B500F2EF9EEEF2EF02D08EE27E249EB50E0C0
S1131B606AEA70E080E193E20E9491026894AA24F8
S1131B70A1F8C12CE12C00E020E041E06091ED20CF
S1131B8083E193E20E9473018091642D882339F0EC
S1131B9020E041E068EE83E193E20E9473010F2E9E
S1131BA0F5E0AF2EF02DC12CD12CE12CF12C00E06E
S1131BB010E02CE130E044E150E065E070E086E1C3
S1131BC093E20E94D801C1E0CF93882483940F2E1E
S1131BD0FFE7AF2EF02D0F2EF5EAEF2EF12CF02DAE
S1131BE001E310E024E130E043E150E06EE189E1FB
S1131BF093E20E940D02AA24A394E12C00E020E0C9
S1131C0040E06EE18CE193E20E9473016894AA249F
S1131C10A1F820E0409106206EE18FE193E20E945A
S1131C2073010F2EF5E0AF2EF02DC12CD12CE12C39
S1131C30F12C00E010E02DE130E044E150E06CE3F1
S1131C4070E086E193E20E94D801CF930F2EFFE764
S1131C50AF2EF02D0F2EF5EAEF2EF12CF02D09E624
S1131C6010E024E130E04BE450E06FE189E193E2DD
S1131C700E940D02AA24A394E12C00E020E040E09D
S1131C806FE18CE193E20E9473016894AA24A1F8A5
S1131C9020E0409105206FE18FE193E20E947301FF
S1131CA0A12C0F2EFCE4CF2EF3E2DF2EF02D0F2E0D
S1131CB0FCEDEF2EF02D07ED21E243E750E061EE5D
S1131CC070E082E293E20E9491020F2EFDEDEF2E6E
S1131CD0F02D08ED22E243E750E06AEA70E082E288
S1131CE093E20E9491020F2EFEEDEF2EF02D09EDEE
S1131CF020E243E750E063E770E082E293E20E946F
S1131D0091022FEF87E893E1215080409040E1F762
S1131D1000C000000F2EF3EEEF2EF02D0FED24E2A5
S1131D2044E150E063E770E080E193E20E949102B5
S1131D306091652D0F900F90662361F06894AA243A
S1131D40A1F8C12CE12C00E020E041E083E193E222
S1131D500E947301A12C0F2EFCE4CF2EF3E2DF2EA0
S1131D60F02D0F2EF4EEEF2EF02D00EE25E242E3DF
S1131D7050E063E770E080E193E20E949102609199
S1131D80662D662361F06894AA24A1F8C12CE12C85
S1131D9000E020E041E083E193E20E947301A12C82
S1131DA00F2EFCE4CF2EF3E2DF2EF02D0F2EF5EEF6
S1131DB0EF2EF02D01EE26E240E550E063E770E0FF
S1131DC080E193E20E9491026091632D662361F0A9
S1131DD06894AA24A1F8C12CE12C00E020E041E0A1
S1131DE083E193E20E947301A12C0F2EFCE4CF2E19
S1131DF0F3E2DF2EF02D0F2EF6EEEF2EF02D02EE95
S1131E0023E244E150E06CEE70E080E193E20E9452
S1131E1091026091622D662361F06894AA24A1F86E
S1131E20C12CE12C00E020E041E083E193E20E9438
S1131E307301C1E0CF93882483940F2EFFE7AF2E64
S1131E40F02DC12C0F2EFCE2EF2EF12CF02D06EE1E
S1131E5010E024E130E041E950E068E285E293E2F9
S1131E600E940D02AA24A394E12C00E020E040E0AB
S1131E7068E28CE193E20E9473016894AA24A1F8B9
S1131E8020E040919B2C68E28FE193E20E94730171
S1131E90CF930F2EFFE7AF2EF02D0F2EFAE4EF2E87
S1131EA0F12CF02D06EE10E022E330E041E950E0A1
S1131EB069E285E293E20E940D02AA24A394E12C34
S1131EC000E020E040E069E28CE193E20E947301CB
S1131ED06894AA24A1F820E04091992C69E28FE14A
S1131EE093E20E947301CF930F2EFFE7AF2EF02DE4
S1131EF00F2EF8E6EF2EF12CF02D06EE10E020E583
S1131F0030E041E950E06AE285E293E20E940D028A
S1131F10AA24A394E12C00E020E040E06AE28CE1F2
S1131F2093E20E9473016894AA24A1F820E04091EE
S1131F309A2C6AE28FE193E20E94730182E080931B
S1131F409D2C0F900F900F9081E0CF911F910F91D6
S1131F50FF90EF90DF90CF90AF908F9008958F9285
S1131F60AF92BF92CF92EF920F931F938AECC0DC93
S1131F70AA24A394C12CE12C00E020E040E064E01A
S1131F808AE093E20E9473016894AA24A1F820E0F5
S1131F9040E069E08DE093E20E9473010F2EF5E0CA
S1131FA08F2EF02D0F2EF8E2AF2EF3E2BF2EF02D80
S1131FB00F2EF7EDCF2EF02D0F2EF2EDEF2EF02D8C
S1131FC006EE10E02CE330E044EB50E06AE070E011
S1131FD08EE293E20E9442020F2EF3E08F2EF02D48
S1131FE00F2EF1E3AF2EF3E2BF2EF02D0F2EF8EDFE
S1131FF0CF2EF02D0F2EF3EDEF2EF02D28E730E04D
S113200044EB50E066E470E08EE293E20E94420208
S11320100F2EF6E08F2EF02D0F2EF5E3AF2EF3E208
S1132020BF2EF02D0F2EF9EDCF2EF02D0F2EF4ED47
S1132030EF2EF02D24EB30E044EB50E062E870E04A
S11320408EE293E20E9442026894882482F80F2E62
S1132050FCE3AF2EF3E2BF2EF02D0F2EFAEDCF2EC0
S1132060F02D0F2EF5EDEF2EF02D20EF30E044EBA8
S113207050E06EEB70E08EE293E20E944202AA24EA
S1132080A394C12CE12C00E020E040E060E08AE071
S113209093E20E94730183E080939D2C81E01F9161
S11320A00F91EF90CF90BF90AF908F9008950F93C2
S11320B0CF93C82F8C3550F101E021E433E246E997
S11320C050E06AE070E083E493E20E949B01E3E75E
S11320D0F0E0EC1BF109EE0FFF1FE95FFF4D2081DB
S11320E0318103E046E950E064E170E083E493E287
S11320F00E949B0102E026E433E246E950E06DE2EF
S113210070E083E493E20E949B0155C08B3550F547
S113211001E029E433E246E950E06AE070E083E458
S113212093E20E949B01E3E7F0E0EC1BF109EE0F60
S1132130FF1FE95FFF4D2081318103E046E950E054
S113214064E170E083E493E20E949B0102E026E4F0
S113215033E246E950E06DE270E083E493E20E94EA
S11321609B0129C001E02BE433E246E950E06AE038
S113217070E083E493E20E949B01E3E7F0E0EC1B50
S1132180F109EE0FFF1FE95FFF4D2081318103E06C
S113219046E950E064E170E083E493E20E949B012D
S11321A002E026E433E246E950E06DE270E083E4C5
S11321B093E20E949B0181E0CF910F9108950F93C8
S11321C005E02DE433E246E950E06EE170E083E49B
S11321D093E20E949B0181E00F910895AF92CF9208
S11321E0DF92EF92FF920F931F93022F10E0242FA0
S11321F030E0462F50E0682F70E06894AA24A3F8DA
S1132200C12CD12CE12CF12C83E593E20E94D8015E
S113221081E01F910F91FF90EF90DF90CF90AF90EE
S113222008956F927F928F92AF92CF92DF92EF9246
S1132230FF920F931F93CF93DF9388EC59DB0F2EFC
S1132240F5E0AF2EF02DC12CD12CE12CF12C00E0C7
S113225010E021E130E04AEA50E060E070E086E11D
S113226093E20E94D80122E130E044E650E063E7C3
S113227070E086E193E20E94D80125E130E042E873
S113228050E060E070E086E193E20E94D801AA2465
S1132290A39420E040E062E08AE093E20E947301AC
S11322A06894AA24A1F820E040E069E08DE093E27C
S11322B00E947301A12C0F2EFCE4CF2EF3E2DF2E3B
S11322C0F02D0F2EF3ECEF2EF02D0EEB28E049EB62
S11322D050E065E070E080E193E20E9491020F2EED
S11322E0F4ECEF2EF02D0FEB29E049EB50E06CE31A
S11322F070E080E193E20E9491020F2EF5ECEF2E44
S1132300F02D00EC2AE049EB50E063E770E080E157
S113231093E20E9491020F2EF6ECEF2EF02D01ECC9
S11323202BE049EB50E06AEA70E080E193E20E941E
S113233091020F2EF7ECEF2EF02D02EC2CE049EB7E
S113234050E061EE70E080E193E20E949102AA24E1
S1132350A394C12CE12C00E020E040E060E08AE09E
S113236093E20E9473016894AA24A1F820E041E05A
S11323706091EE2083E193E20E9473010F2EF5E059
S1132380AF2EF02DC12CD12CE12CF12C00E010E06B
S113239023E130E045E050E065E070E086E193E25F
S11323A00E94D80181E08F93882483940F2EF3E751
S11323B0AF2EF02D0F2EFCE7EF2EF12CF02D0FE2B7
S11323C010E025E030E041E150E064E189E193E28E
S11323D00E940D02AA24A394E12C00E020E040E036
S11323E064E18CE193E20E9473010F9080919C2C34
S11323F0882339F025EA4AE561E982E0EFDEDFDE91
S113240011C070D2C82F6894AA24A1F8C12CE12C61
S113241000E020E0482F64E18FE193E20E94730121
S11324208C2F45DE2FEF87E893E1215080409040C8
S1132430E1F700C000000F2EF8E76F2E712CF02D8D
S1132440C1E0D1E08301085F1F4FDF93812C0F2E81
S1132450F8ECAF2EF02DC12C0F2EFFE5EF2EF12C52
S1132460F02D25E030E0A3016C2F89E193E20E9476
S11324700D022BE0620E711C6894AA24A1F8E12CD1
S113248000E020E040E06C2F8FE193E20E947301B2
S11324908FE39CE90197F1F700C00000CF5F0F9034
S11324A0CF3081F60F2EF5E0AF2EF02DC12CD12CBC
S11324B0E12CF12C00E010E024E130E045E050E0B4
S11324C066E370E086E193E20E94D801C1E0CF9315
S11324D0882483940F2EFEEBAF2EF02D0F2EFCE7F5
S11324E0EF2EF12CF02D08E510E025E030E042E479
S11324F050E065E189E193E20E940D02CF9301E788
S113250010E025E030E04BE550E066E189E193E23C
S11325100E940D026894AA24A1F8E12C00E020E0B6
S113252044E665E18FE193E20E94730120E044E612
S113253066E18FE193E20E947301A12C0F2EFCE46B
S1132540CF2EF3E2DF2EF02D0F2EF9EBEF2EF02D30
S113255004EB2DE043E750E061EE70E080E193E2AC
S11325600E94910260919C2C0F900F90662361F061
S11325706894AA24A1F8C12CE12C00E020E041E0F9
S113258083E193E20E947301A12C0F2EFCE4CF2E71
S1132590F3E2DF2EF02D0F2EFAEBEF2EF02D05EBEC
S11325A026E143E750E06AEA70E082E293E20E94A7
S11325B091020F2EFBEBEF2EF02D06EB27E143E704
S11325C050E063E770E082E293E20E94910281E0CE
S11325D080939D2CDF91CF911F910F91FF90EF90ED
S11325E0DF90CF90AF908F907F906F900895AF92CF
S11325F0CF92EF920F93CF9375D1C82F6894AA24EA
S1132600A1F8C12CE12C00E020E0482F64E18FE127
S113261093E20E94730125EA4AE561E982E0DEDD86
S11326208C2F45DD81E0CF910F91EF90CF90AF904B
S11326300895CF92DF92EF92FF920F931F93CF935F
S1132640DF93CDB7DEB72F97CDBFDEBFC62E93E2A3
S113265099831A821B821C828D8384E28E831F825B
S1132660188619861A8604E021E0AE014A5F5F4F9E
S113267068E685E09DE29AD7E5E0FDE223A144A166
S113268095A186A150E060E070E0522B762F652F73
S1132690542F4427492B762F652F542F4427482B3A
S11326A04093B22C5093B32C6093B42C7093B52CFC
S11326B04D3C89EA58078CEE680787E0780709F0F3
S11326C001C11092B12C80E00BC0019111912191B4
S11326D03191401751076207730729F48093B12C95
S11326E08093B02CDDC08F5F833779F7D6C0E0913B
S11326F0B02CEC5FE093B02CE23798F085E0EFEE7D
S1132700F2E2DE011B9601900D928A95E1F700E05A
S113271025E0AE01455F5F4F68E685E09DE246D760
S11327201FC0F0E0EE0FFF1FEE0FFF1FEE53FB4D37
S113273080819181A281B381FE013B968293892F8E
S11327409A2FAB2FBB27EE15FF05C1F7DE8200E001
S113275025E0A70168E685E09DE228D7115039F607
S113276082E0C816A1F08C1520F081E0C81641F073
S113277023C083E0C81691F084E0C816B1F01CC0F1
S1132780E0E6F6E081E0868382E086831BC0E0E633
S1132790F6E081E0858382E0868314C0E0E6F6E01B
S11327A081E0868382E085830DC0E0E6F6E081E087
S11327B0858382E0858306C0E0E6F6E081E08683D7
S11327C082E0868300E025E0AE014F5F5F4F68E65C
S11327D085E09DE2EBD6E091B02CE450E093B02C80
S11327E08091B12C8E1798F41EE17E0186E0E80EEC
S11327F0F11C0F2EF4E2DF2EF02D2EC0E091B02C50
S1132800E450E093B02C8091B12C8E1728F1E82F7E
S1132810F0E0EE0FFF1FEE0FFF1FEE53FB4D808124
S11328209181A281B381FE013B969E012A5F3F4FB5
S11328308293892F9A2FAB2FBB272E173F07C1F7FF
S113284084E28E8300E025E0AE014A5F5F4F68E6D4
S113285085E09DE2ABD63AC0F0E0EE0FFF1FEE0F2D
S1132860FF1FEE53FB4D80819181A281B381FE0154
S11328703B968293892F9A2FAB2FBB27EE16FF0628
S1132880C1F7DE8200E025E0A70168E685E09DE26D
S11328908DD6115009F0B2CF19C083E78093B12CC3
S11328A0E091B02CEC5FE093B02CE23708F026CF37
S11328B01EE17E0186E0E80EF11C0F2EF4E2DF2E0D
S11328C0F02D2FCFE6ECF4E281E0FFCE2F96CDBFC2
S11328D0DEBFDF91CF911F910F91FF90EF90DF90BA
S11328E0CF9008950F931F93CF93DF931F92CDB78B
S11328F0DEB784E2898304E021E0AE014F5F5F4FDD
S113290068E685E09DE252D6E5E0FDE203A110E031
S113291020E030E0322F212F102F002784A1082B34
S1132920322F212F102F002785A1082B322F212F82
S1132930102F002786A1082B0D3C89EA18078CEE7E
S1132940280787E0380781F0E6ECF4E291E0419152
S1132950519161917191041715072607370729F0E2
S11329609F5F9337A1F701C090E083E7891B0F9025
S1132970DF91CF911F910F9108950F93CF93DF9320
S1132980CDB7DEB72597CDBFDEBF94E29983E3E7E9
S1132990F0E0E81BF109EE0FFF1FEE0FFF1FEE53EF
S11329A0FB4D30812181928183813D832C839B83E4
S11329B08A8300E025E0AE014F5F5F4F68E685E063
S11329C09DE2F4D52596CDBFDEBFDF91CF910F9167
S11329D008958F929F92AF92CF92EF920F931F938D
S11329E0CF93DF93CDB7DEB72B97CDBFDEBF182FC4
S11329F085E0E4EFF2E2DE01119601900D928A95F2
S1132A00E1F787E48E838F83188619861A861B86DE
S1132A1000E025E0AE014F5F5F4F68E685E09DE290
S1132A20C5D58FE39FE10197F1F700C0000004E0F2
S1132A3021E0AE014A5F5F4F68E685E09DE2B6D5CE
S1132A401123E1F00F2EF5E08F2EFDE29F2EF02DE5
S1132A50F40143A16894AA24A1F8C12CE12C00E05C
S1132A6020E065E18FE193E20E947301F40144A147
S1132A7020E066E18FE193E20E94730100E025E02B
S1132A80AE01495F5F4F68E685E09DE28FD52B96E6
S1132A90CDBFDEBFDF91CF911F910F91EF90CF900B
S1132AA0AF909F908F9008958F929F92AF92CF9204
S1132AB0EF920F93CF93DF93CDB7DEB72B97CDBFB4
S1132AC0DEBF982E85E0E9EFF2E2DE011196019077
S1132AD00D928A95E1F782E48E838F831886198696
S1132AE01A861B8600E025E0AE014F5F5F4F68E663
S1132AF085E09DE25BD58FE39FE10197F1F700C08C
S1132B00000000E121E0AE014A5F5F4F68E685E026
S1132B109DE24CD5992009F47CC00F2EF5E08F2E50
S1132B20FDE29F2EF02DF40143A16894AA24A1F89C
S1132B30C12CE12C00E020E061E08FE193E20E94EF
S1132B407301F40144A120E062E08FE193E20E946A
S1132B507301F40145A120E063E08FE193E20E9458
S1132B607301F40146A120E064E08FE193E20E9446
S1132B707301F40147A120E065E08FE193E20E9434
S1132B807301F40140A520E066E08FE193E20E9426
S1132B907301F40141A520E067E08FE193E20E9414
S1132BA07301F40142A520E068E08FE193E20E9402
S1132BB07301F40143A520E069E08FE193E20E94F0
S1132BC07301F40144A520E06AE08FE193E20E94DE
S1132BD07301F40145A520E06BE08FE193E20E94CC
S1132BE07301F40146A520E06CE08FE193E20E94BA
S1132BF07301F40147A520E06DE08FE193E20E94A8
S1132C007301F40140A920E06EE08FE193E20E9499
S1132C10730100E025E0AE01495F5F4F68E685E09F
S1132C209DE2C4D42B96CDBFDEBFDF91CF910F912F
S1132C30EF90CF90AF909F908F9008950F931F9334
S1132C40CF93DF93CDB7DEB72A97CDBFDEBF94E233
S1132C5099831A821B821C821D8281114BC0E091D0
S1132C60AF2CE450E093AF2C8091AE2C8E1758F427
S1132C701EE123C0E091AF2CE450E093AF2C80918F
S1132C80AE2C8E17D0F0E82FF0E0EE0FFF1FEE0F02
S1132C90FF1FEE53FB4D30812181928183813D835F
S1132CA02C839B838A8300E025E0AE014F5F5F4F56
S1132CB068E685E09DE27AD41BC0F0E0EE0FFF1FCA
S1132CC0EE0FFF1FEE53FB4D3081218192818381F2
S1132CD03D832C839B838A8300E025E0AE014F5F14
S1132CE05F4F68E685E09DE261D4115009F0C2CFE0
S1132CF07EDC93C004E021E0AE014F5F5F4F68E6E5
S1132D0085E09DE253D4E5E0FDE223A144A195A131
S1132D1086A150E060E070E0522B762F652F542F8F
S1132D204427492B762F652F542F4427482B409353
S1132D30AA2C5093AB2C6093AC2C7093AD2C4D3CCF
S1132D4089EA58078CEE680787E0780709F061C0C4
S1132D501092AE2C80E00BC0019111912191319120
S1132D60401751076207730729F48093AE2C8093B0
S1132D70AF2C43C08F5F833779F73CC0E091AF2C11
S1132D80EC5FE093AF2CF0E0EE36F1059CF085E0CB
S1132D90EFEEF2E2DE01169601900D928A95E1F7CC
S1132DA000E025E0AE014A5F5F4F68E685E09DE202
S1132DB0FDD319C0EE0FFF1FEE0FFF1FEE53FB4DA7
S1132DC030812181928183813D832C839B838A83FB
S1132DD000E025E0AE014F5F5F4F68E685E09DE2CD
S1132DE0E5D3115059F625EA4AE561E982E0F6D9BE
S1132DF0E6D913C083E78093AE2CE091AF2CEC5F4F
S1132E00E093AF2CF0E0EE36F1050CF0C0CF1EE1FC
S1132E10D1CFE6ECF4E281E09FCF2A96CDBFDEBFAE
S1132E20DF91CF911F910F910895CF92DF92EF928E
S1132E30FF920F931F93CF93DF93CDB7DEB7259700
S1132E40CDBFDEBF84E289831A821B821C821D826D
S1132E5004E021E0AE014F5F5F4F68E685E09DE24C
S1132E60A5D3E5E0FDE223A144A195A186A150E00C
S1132E7060E070E0522B762F652F542F4427492BA6
S1132E80762F652F542F4427482B4093A62C50931C
S1132E90A72C6093A82C7093A92C4D3C29EA5207C7
S1132EA02CEE620727E0720709F055C01092A52C9A
S1132EB080E00BC0C190D190E190F1904C155D057C
S1132EC06E057F0579F48093A52C8093A42CCE0104
S1132ED001967C0114E20F2EF0E6CF2EF6E0DF2EF1
S1132EE0F02D34C08F5F833729F78093A52CEFCF63
S1132EF0E150E093A42CF0E0EE0FFF1FEE0FFF1F54
S1132F00EE53FB4D80819181A281B381FE013696FF
S1132F108293892F9A2FAB2FBB27EE16FF06C1F79A
S1132F20198300E025E0A70168E685E09DE23ED331
S1132F305EDB9FEFE3EDF0E39150E040F040E1F71A
S1132F4000C00000F601808586FF09C0E091A42C32
S1132F50E111CECF04C0E6ECF4E281E0ABCF2596DC
S1132F60CDBFDEBFDF91CF911F910F91FF90EF9006
S1132F70DF90CF900895CF92DF92EF92FF920F935C
S1132F801F93CF93DF93CDB7DEB72597CDBFDEBFB9
S1132F9084E289831A821B821C821D8204E021E060
S1132FA0AE014F5F5F4F68E685E09DE2FFD2E5E04A
S1132FB0FDE223A144A195A186A150E060E070E068
S1132FC0522B762F652F542F4427492B762F652FAC
S1132FD0542F4427482B4093A02C5093A12C60934A
S1132FE0A22C7093A32C4D3C29EA52072CEE6207C5
S1132FF027E0720709F055C010929F2C80E00BC0A7
S1133000C190D190E190F1904C155D056E057F055E
S113301079F480939F2C80939E2CCE0101967C01A1
S113302014E20F2EF0E6CF2EF6E0DF2EF02D34C0A2
S11330308F5F833729F780939F2CEFCFEF5FE09367
S11330409E2CF0E0EE0FFF1FEE0FFF1FEE53FB4D23
S113305080819181A281B381FE0136968293892F6A
S11330609A2FAB2FBB27EE16FF06C1F7198300E09A
S113307025E0A70168E685E09DE298D2B8DA9FEFE3
S1133080E3EDF0E39150E040F040E1F700C00000D0
S1133090F601808586FF09C0E0919E2CE23770F22C
S11330A004C0E6ECF4E281E0ABCF2596CDBFDEBFF1
S11330B0DF91CF911F910F91FF90EF90DF90CF9010
S11330C00895FC0160836183628363836483158252
S11330D00895FC012581DC01A20FB11D6C932F5FC3
S11330E09DEC299F912D112496959695892F880FF3
S11330F0880F980F291B25830895FC01AC014B5FB1
S11331005F4F20E030E08191280F311DE417F5076F
S1133110D1F7ADECBCEC44D49695879596958795FC
S11331200895E0E5F0E08BEC828380818860808301
S1133130818183FFFDCF88ED84BF83E080934000CD
S11331400895E0E5F0E082EC8583808180618083EE
S1133150818184FFFDCF88ED84BF84E080934000AB
S11331600895CF93DF93E0E0F6E080818D7F808344
S1133170808180648083C0E4D6E088818062888313
S1133180E0E6F6E0808181608083808182608083D4
S113319080818062808380818F7B8083808180684E
S11331A08083A0E8B6E08C9180648C938C918068D5
S11331B08C9380E28E8380E8868315968C91159794
S11331C0806415968C93DF91CF910895E0E0F8E048
S11331D087E08083118281E0868385E39CE086A377
S11331E097A308959EDFADDFBCDFF0DF93D3ABD3AD
S11331F00E94560160E08FE49DE263DF60E085E5B4
S11332009DE25FDF60E08BE59DE25BDF2BE940E45C
S113321060EA74E08BEB9CE2B8D12BE940E460E80F
S113322074E085E09DE2B1D1E0EAF0E08281836060
S1133230828378942FEF33EC89E021503040804032
S1133240E1F700C0000080E2809345069FEFE3ECC5
S1133250F9E09150E040F040E1F700C0000080E860
S1133260809365062FEF33E284EF90E021503040E5
S113327080409040D9F700C0000080E480930506A8
S113328080E00E943F040E94111163E083E0D1D9E1
S113329005E01DE2C0E6D6E06894FF24F5F88091CD
S11332A09D2C813051F48091BA2C882331F01092F6
S11332B0BA2C81E08EDB81E0F7DB8091942C8111C4
S11332C00E9487048091932C882309F437C080914D
S11332D0B92C882399F18091952C811142C0809159
S11332E0982C811151C08091962C811152C08091EB
S11332F0972C81114EC01092B92CD6DBF80160A531
S11333008FE49DE2E6DEF80167A58FE49DE2E1DE4D
S1133310F80166A185E59DE2DCDEF80165A585E599
S11333209DE2D7DEF80163A18BE59DE2D2DEF801D0
S113333062A58BE59DE2CDDE0E949A0B80919026DA
S1133340882379F08091952C81110BC08091982C61
S1133350811107C08091962C811103C08091972C14
S113336081110E94920B888586FD99CFC6D288234D
S113337009F495CF0E94C303882311F0FE828FCFF6
S1133380FD8210924E2D8BCF809190268111DECF3D
S1133390E8CF809190268111DDCFE3CF1F920F9269
S11333A00FB60F9211240BB60F922F933F934F93A6
S11333B05F936F937F938F939F93AF93BF93EF9399
S11333C0FF938BEB9CE2E8D1FF91EF91BF91AF911A
S11333D09F918F917F916F915F914F913F912F9129
S11333E00F900BBE0F900FBE0F901F9018951F9259
S11333F00F920FB60F9211240BB60F922F933F9397
S11334004F935F936F937F938F939F93AF93BF93E8
S1133410EF93FF9385E09DE2BFD1FF91EF91BF91C0
S1133420AF919F918F917F916F915F914F913F9158
S11334302F910F900BBE0F900FBE0F901F901895F9
S11334401F920F920FB60F9211248F9381E08093F5
S1133450BA2C8093B92C8F910F900FBE0F901F90B0
S113346018951F920F920FB60F9211240BB60F925C
S11334708F93EF93FF93E0E0F1E081898061818B8A
S113348080898F77808BE0EAF8E0818186FFFDCF29
S1133490E0EAF8E08181806481831092042DFF9139
S11334A0EF918F910F900BBE0F900FBE0F901F9056
S11334B018951F920F920FB60F9211240BB60F920C
S11334C08F93EF93FF93E0E0F1E081A1806181A30A
S11334D080A18F7780A381E08093912CFF91EF915D
S11334E08F910F900BBE0F900FBE0F901F901895E9
S11334F01F920F920FB60F9211240BB60F922F93B7
S11335003F938F939F93EF93FF939091B008809193
S1133510922C81112DC08091B10884FF0DC01092AE
S1133520B72C1092B82C911104C081E08093B62C72
S11335301FC01092B62C1CC08091B62C8823C1F0F9
S11335402091B72C3091B82CF901EF56F54D9083AA
S1133550211582E0380738F42F5F3F4F2093B72CB2
S11335603093B82C05C081E08093922C1092B62C35
S1133570FF91EF919F918F913F912F910F900BBEEF
S11335800F900FBE0F901F901895FC0160837183FC
S11335904863DB0111964C93A081B18115962C935D
S11335A00190F081E02D81E084830895EF92FF92F1
S11335B00F93CF93DF93EC01213208F04CC001321A
S11335C008F04BC0FC01E95BFF4F8081811147C0CB
S11335D081E08083319610826A832223A1F07A01EC
S11335E06FEF620F70E06F5F7F4F640F751FFA011A
S11335F0DF01AE19BF099191AC0FBD1F13969C93C7
S1133600E617F707A9F7FE01ED5BFF4F2083DE0104
S1133610AC5BBF4F0C9311961C9211961C92808147
S1133620882341F08A818E7FE881F9818683C95B92
S1133630DF4F0CC0FE01EC5BFF4F80818823B9F3A0
S11336408A818160E881F9818683F1CF9881911123
S1133650FDCF81E005C080E003C080E001C080E0D0
S1133660DF91CF910F91FF90EF900895DC01ED91E0
S1133670FC911197248122FF05C034E0A85BBF4F61
S11336803C9305C033E0DC01A85BBF4F3C9328604A
S11336902483FC01E95BFF4F10820895CF93DF93ED
S11336A0FC01ED5BFF4F308131964081DC01ED91EF
S11336B0FC91248124FF0AC023E02383FC01E85BFE
S11336C0FF4F25E020833197108225C0DC01AB5BDE
S11336D0BF4F2C91231750F42C91EC01C20FD11D34
S11336E08B8187838C918F5F8C9315C0DC01AA5BDF
S11336F0BF4F2C91241730F4DC0112968C91816019
S1133700868309C023E02383FC01E85BFF4F21E0AB
S1133710208331971082DF91CF910895FC01EA5BF9
S1133720FF4F2081203288F4DC01ED91FC91119748
S11337302781FC01EA5BFF4F3081A30FB11D9396F3
S11337402C9320812F5F20830CC0DC01ED91FC9130
S113375023E0238322E0FC01E85BFF4F20833197C1
S11337601082FC01EC5BFF4F3081329620812317DD
S113377030F4DC01ED91FC9182E083830895DC0157
S1133780ED91FC9127E02383FC01E85BFF4F21E0EE
S11337902083319710820895DC01ED91FC912481FE
S11337A0322F3C7011F062CF089526FF02C076CF0D
S11337B00895222314F4B2CF0895FC01E85BFF4F6F
S11337C026E020833197108208950F93CF93DF93DF
S11337D0CDB7DEB7A097CDBFDEBFFC01442321F0F7
S11337E082E1898392E103C081E1898391E1960FAB
S11337F06A83662379F0DE0113964FEF460F50E09B
S11338004F5F5F4F4E0F5F1F8191980F8D93E417A9
S1133810F507D1F7FE01E60FF11D93836D5F022FCB
S1133820262FAE014F5F5F4F6EED8BEB9CE2BEDE49
S1133830A096CDBFDEBFDF91CF910F910895EF9297
S1133840FF920F931F93CF93DF937C01D62FC4E095
S11338500BEB1CE221E040E06D2FC701B6DFF8015D
S113386083A1863021F0C150A9F780E001C081E036
S1133870DF91CF911F910F91FF90EF900895682FE2
S113388070E0615071096230710584F021E030E02C
S113389091E040E0F901E554F34D23A1420F9F5F0D
S11338A0292F30E026173707ACF303C021E030E0BE
S11338B040E0F901E554F34D93A181E0941380E0D5
S11338C00895CF93DF93882369F0CBEBDCE22EA13C
S11338D02C5F41E061E08EE896E277DF8DA18C5F9A
S11338E0CEDF08C026E041E061E087E193E26DDFCE
S11338F086E0C5DFDF91CF91089580E0E2DF882381
S113390041F08091E12C882319F081E0DACF089509
S113391082E00895E0E4F6E098E091839583E0EA9C
S1133920F8E085818F73858385818F7C858385818C
S1133930887F8360858385818860858383E186832E
S113394017829483089580E480934206A0EAB8E045
S113395015968C9115978F73E0EBF8E08583159697
S11339608C9115978F7C858315968C911597887FFC
S11339708360858315968C918860858387E0868330
S1133980178283818F7C8062838380E1848308959E
S1133990EE0FFF1F881F8BBF0790F691E02D19943F
S11339A0A29FB001B39FC001A39F700D811D11247C
S11339B0911DB29F700D811D1124911D08958F9248
S11339C09F92AF92BF92CF92DF92EF92FF92CF93EA
S11339D0DF93EC01688179818A819B81611571058E
S11339E08105910521F464E279ED8BE597E02DE101
S11339F033EF41E050E038D049015A019B01AC015A
S1133A00A7EAB1E44DD06B017C01ACEEB4EFA501A3
S1133A10940152D0DC01CB018C0D9D1DAE1DBF1D48
S1133A20B7FF03C00197A109B04888839983AA838B
S1133A30BB839F77DF91CF91FF90EF90DF90CF9082
S1133A40BF90AF909F908F900895B9CF80E090E29F
S1133A50B6CFA0E0B0E08093002090930120A09323
S1133A600220B09303200895052E97FB16F40094CA
S1133A700FD057FD05D024D007FC02D046F408C06F
S1133A8050954095309521953F4F4F4F5F4F089586
S1133A9090958095709561957F4F8F4F9F4F0895B6
S1133AA07FDFA59F900DB49F900DA49F800D911D65
S1133AB011240895B7FFF4CFF3DF821B930B08950D
S1133AC0A1E21A2EAA1BBB1BFD010DC0AA1FBB1F1E
S1133AD0EE1FFF1FA217B307E407F50720F0A21B90
S1133AE0B30BE40BF50B661F771F881F991F1A94FD
S1133AF069F760957095809590959B01AC01BD0127
S10B3B00CF010895F894FFCFF2
S1133B080100000001646456235A235E236223667D
S1133B18236A236E23722376237A237E23822386C1
S1133B28238A238E23922396239A239E23A223A6B1
S1133B3823AA23AE23B223B623B223AE23AA23A6F1
S1133B4823A2239E239A23962392238E238A2386B1
S1133B582382237E237A23762372236E236A2366A1
S1133B682362235E235A235623BA23BE23C223C6C1
S1133B7823CA23CE23D223D623DA23DE23E223E661
S1133B8823EA23EE23F223F623FA23FE2302240650
S1133B98240A240E24122416241A241E2422242639
S1133BA8242A242E24322436243A243E2442244629
S1133BB8244A244E24522456245A245E2462246619
S1133BC8246A246E24722476247A247E2482248609
S1133BD8248A248E24922496249A249E24A224A6F9
S1133BE824AA24AE24B224B624BA24BE24D2BFFF05
S1133BF8FFFFFFFFFFFFFFFFFFFFFFFFFFFFFFFFC9
S1133C08FFFFFFFFFFFFFFFFFFFFFFFFFFFFFFFFB8
S1133C18FFFFFFFFFFFFFFFFFFFFFFFFFFFFFFFFA8
S1133C28FFFFFFFFFFFFFFFFFFFFFFFFFFFFFFFF98
S1133C38FFFFFFFFFFFFFFFFFFFFFFFFFFFFFFFF88
S1133C48FFFFFFFFFFFFFFFFFFFFFFFFFFFFFFFF78
S1133C58FFFFFFFFFFFFFFFFFFFFFFFFFFFFFFFF68
S1133C68FFFFFFFFFFFFFFFFFFFFFFFFFFFFFFFF58
S1133C78FFFFFFFFFFFFFFFFFFFFFFFFFFFFFFFF48
S1133C88FFFFFFFFFFFFFFFFFFFFFFFFFFFFFFFF38
S1133C98FFFFFFFFFFFFFFFFFFFFFFFFFFFFFFFF28
S1133CA8FFFFFFFFFFFFFFFFFFFFFFFFFFFFFFFF18
S1133CB8FFFFFFFFFFFFFFFFFFFFFFFFFFFFFFFF08
S1133CC8FFFFFFFFFFFFFFFFFFFFFFFFFFFFFFFFF8
S1133CD8FFFFFFFFFFFFFFFFFFFFFFFFFFFFFFFFE8
S1133CE8FFFFFFFFFFFFFFFFFFFFFFFFFFFFFFFFD8
S1133CF8FFFFFFFFFFFFFFFFFFFFFFFFFFFFFFFFC8
S1133D08FFFFFFFFFFFFFFFFFFFFFFFFFFFFFFFFB7
S1133D18FFFFFFFFFFFFFFFFFFFFFFFFFFFFFFFFA7
S1133D28FFFFFFFFFFFFFFFFFFFFFFFFFFFFFFFF97
S1133D38FFFFFFFFFFFFFFFFFFFFFFFFFFFFFFFF87
S1133D48FFFFFFFFFFFFFFFFFFFFFFFFFFFFFFFF77
S1133D58FFFFFFFFFFFFFFFFFFFFFFFFFFFFFFFF67
S1133D68FFFFFFFFFFFFFFFFFFFFFFFFFFFFFFFF57
S1133D78FFFFFFFFFFFFFFFFFFFFFFFFFFFFFFFF47
S1133D88FFFFFFFFFFFFFFFFFFFFFFFFFFFFFFFF37
S1133D98FFFFFFFFFFFFFFFFFFFFFFFFFFFFFFFF27
S1133DA8FFFFFFFFFFFFFFFFFFFFFFFFFFFFFFFF17
S1133DB8FFFFFFFFFFFFFFFFFFFFFFFFFFFFFFFF07
S1133DC8FFFFFFFFFFFFFFFFFFFFFFFFFFFFFFFFF7
S1133DD8FFFFFFFFFFFFFFFFFFFFFFFFFFFFFFFFE7
S1133DE8FFFFFFFFFFFFFFFFFFFFFFFFFFFFFF24B2
S1133DF80000001A4700800000420080000054417F
S1133E0800444C00525200414C00415200414500CC
S1133E18414A00415000554900424F004142004286
S1133E284100415500425200417564696F00414B9D
S1133E3800444D580053797374656D00496E666F7C
S1133E48002B005A4C006442002D0020004D75746C
S1133E58656400524C002032340020323300203292
S1133E683200203231002032300020313900203134
S1133E783800203137002031360020313500203118
S1133E883400203133002031320020313100203118
S1133E98300020203900202038002020370020203E
S1133EA83600202035002020340020203300202034
S1133EB8320020203100202030002032350020320A
S1133EC836002032370020323800203239002033BF
S1133ED830002033310020333200203333002033C4
S1133EE834002033350020333600203337002033A4
S1133EF83800203339002034300020343100203495
S1133F083200203433002034340020343500203487
S1133F183600203437002034380020343900203566
S1133F28300020353100203532002035330020356B
S1133F38340020353500203536002035370020354B
S1133F48380020353900203630002036310020363C
S1133F58320020363300203634002036350020362F
S1133F68360020363700203638002036390020370E
S1133F78300020373200203734002037360020370D
S1133F8838002038300020383200203834002038F7
S1133F9836002038380020393000203932002039E2
S1133FA834002039360020393800313030003130BF
S1133FB8320031303400313036003130380031319C
S1133FC83000CDA9EC074D0C1007AD6C4B06012F42
S1133FD89C05000000051BCD740400000004AC2BF4
S1133FE88A031AA0270301CCCF020885810247C19E
S1133FF83B02000000024029C60183C59401C5C0E4
S113400868017E8541016A8E1E01691BF1000CE37B
S1134018D600C7DDCA0007CEB4007724A1004C9EA1
S11340288F0000008000821472008CAC6500F79D3C
S11340385A0035C35000CCFA470000004000ED2C6C
S113404839002CF53200866A2D00267A280046139A
S1134058240000002000D7A71C00138A190010C3ED
S11340681600604914009A14120000001000A15CA4
S11340780E00CCCC0C0073680B00DA2A0A00CB0FB4
S1134088090000000800AE3207004A6A0600B1B70A
S1134098050084180500A78A040000000400879B13
S11340A803001837030095DD0200CE8D0200B446E4
S11340B8020000000200DCCE0100869C0100A96F0A
S11340C80100AE4701000B24010000000100FAE7DB
S11340D80000C0CE000044B800003AA400005E927C
S11340E8000000800000437400009F6700005A5CD1
S11340F800004F5200005B49000000400000453AB0
S11341080000EF330000492E000040290000C424B9
S1134118000000200000341D0000071A00003217B8
S11341280000AC1400006D12000000100000A30E83
S113413800000B0D0000A00B00005C0A0000000842
S11341480000890600003105000000040000460351
S113415800009A02000000020000A40100004D01C2
S1134168000009010000D2000000A700000084003C
S11341780000690000005300000042000000340001
S113418800002A000000210000001A00000053006B
S9030000FC
